:020000040800F2
:10000000D0080020C9010008B1030008A9030008B6
:10001000AD03000885020008030A00080000000084
:100020000000000000000000000000005906000869
:100030008902000800000000090500086D0700089B
:10004000E3010008E3010008E3010008E301000800
:10005000E3010008E3010008E3010008E3010008F0
:10006000E3010008E3010008E3010008E3010008E0
:10007000E3010008E3010008E3010008E3010008D0
:10008000E3010008E3010008E3010008E3010008C0
:10009000E3010008E3010008E3010008E3010008B0
:1000A000E3010008E3010008E3010008E3010008A0
:1000B000E3010008E3010008E3010008E301000890
:1000C000E3010008E3010008E3010008E301000880
:1000D000E3010008E3010008E3010008D10700087C
:1000E000E3010008E3010008E301000800F002F862
:1000F00000F05AF80AA090E8000C82448344AAF168
:100100000107DA4501D100F04FF8AFF2090EBAE865
:100110000F0013F0010F18BFFB1A43F0010318473B
:1001200044200000642000000A444FF0000C10F846
:10013000013B13F0070408BF10F8014B1D1108BF65
:1001400010F8015B641E05D010F8016B641E01F805
:10015000016BF9D113F0080F1EBF10F8014BAD1C55
:100160000C1B09D16D1E58BF01F801CBFAD505E073
:1001700014F8016B01F8016B6D1EF9D59142D6D3CD
:10018000704700000023002400250026103A28BFF5
:1001900078C1FBD8520728BF30C148BF0B607047F9
:1001A0001FB51FBD10B510BD00F031F81146FFF7A7
:1001B000F7FF00F0D7FE00F04FF803B4FFF7F2FFAF
:1001C00003BC00F059F8000009488047094800477F
:1001D000FEE7FEE7FEE7FEE7FEE7FEE7FEE7FEE7F7
:1001E000FEE7FEE704480549054A064B7047000054
:1001F00071070008ED000008D0020020D0080020A0
:10020000D0040020D0040020704770477047754626
:1002100000F02CF8AE4605006946534620F0070072
:10022000854618B020B5FFF7DDFFBDE820404FF050
:1002300000064FF000074FF000084FF0000B21F0D0
:100240000701AC46ACE8C009ACE8C009ACE8C0099D
:10025000ACE8C0098D46704710B50446AFF3008086
:100260002046BDE81040FFF7A8BF000000487047D7
:10027000700200207047000001491820ABBEFEE765
:100280002600020000BFFEE770472DE9F04102465C
:1002900000250026002000230024002791F803C039
:1002A0000CF00F0591F803C00CF0100CBCF1000F1E
:1002B00003D091F802C04CEA050591F800C0BCF1EA
:1002C000000F31D0146800202BE04FF0010C0CFA25
:1002D00000F3B1F800C00CEA03069E4220D183006F
:1002E0004FF00F0C0CFA03F7BC4305FA03FC4CEA81
:1002F000040491F803C0BCF1280F06D14FF0010CA3
:100300000CFA00FCC2F814C00AE091F803C0BCF17A
:10031000480F05D14FF0010C0CFA00FCC2F810C0D8
:10032000401C0828D1D31460B1F800C0BCF1FF0F05
:1003300034DD546800202EE000F1080C4FF0010875
:1003400008FA0CF3B1F800C00CEA03069E4221D172
:1003500083004FF00F0C0CFA03F7BC4305FA03FCC3
:100360004CEA040491F803C0BCF1280F05D100F158
:10037000080C08FA0CF8C2F8148091F803C0BCF11C
:10038000480F07D100F1080C4FF0010808FA0CF8EB
:10039000C2F81080401C0828CED35460BDE8F0811C
:1003A000416170470161704700BFFEE700BFFEE793
:1003B000704710B54FF4A06000F03AF810BD00008F
:1003C00070B5002100230F22C47804B3154C2468B3
:1003D00004F4E064C4F5E064210AC1F10403CA40F6
:1003E000447804FA03F184781440214309010E4C47
:1003F0000678A155047804F01F050124AC40057867
:100400006D11AD0005F1E025C5F8004109E0047863
:1004100004F01F050124AC40044D0678761145F820
:10042000264070BD0CED00E000E400E080E100E05B
:1004300002490143024A1160704700000000FA05BA
:100440000CED00E0F8B5064601F04CF8002400255C
:1004500009E02A460021204600F0CCFF04F11000FC
:10046000C4B2681CC5B2022DF3DB601EC4B21023F7
:1004700048220021204600F06BFF04F10800C4B2BE
:1004800010234B220021204600F062FF04F10800F7
:10049000C4B2102320220021204600F059FF04F1AD
:1004A0000800C4B210234D220021204600F050FF66
:1004B00004F10800C4B2102343220021204600F0BA
:1004C00047FF04F10800C4B2102355220021204642
:1004D00000F03EFF04F10800C4B2042509E02A46FA
:1004E0000021204600F086FF04F11000C4B2681C11
:1004F000C5B2072DF3DB1020012332460321009003
:10050000002000F0ABFFF8BD7047000029B1064A9B
:10051000D2690243044BDA6104E0034AD2698243A0
:10052000014BDA61704700000010024029B1064A11
:1005300092690243044B9A6104E0034A9269824340
:10054000014B9A61704700000010024030B5002155
:100550000022002400232D4D6D6805F00C0121B10F
:10056000042905D0082923D105E0294D056022E0A2
:10057000274D05601FE0254D6D6805F47012234D71
:100580006D6805F48034022505EB92421CB9214DBB
:10059000554305600BE01D4D6D6805F400351DB138
:1005A0001C4D5543056002E0194D5543056002E0BE
:1005B000174D056000BF00BF144D6D6805F0F001D8
:1005C0000909154D6B5C0568DD4045600F4D6D6890
:1005D00005F4E061090A104D6B5C4568DD408560FB
:1005E0000A4D6D6805F46051C90A0B4D6B5C456896
:1005F000DD40C560054D6D6805F44041890B074D30
:100600006B5CC568B5FBF3F5056130BD00100240B9
:1006100000127A0000093D00140000202400002090
:1006200008B501210420FFF781FF4FF40070ADF8F9
:10063000000010208DF8030003208DF802006946A9
:100640000448FFF722FE4FF400710248FFF7AAFEAC
:1006500008BD000000080140704710B500F002F826
:1006600010BD00000CB500200190009033480068D8
:1006700040F001003149086000BF3048006800F0D8
:10068000020000900198401C0190009820B94FF69C
:10069000FF7101988842F0D12848006800F40030CA
:1006A00010B10120009001E0002000900098012886
:1006B00043D12348006840F01000214908600846F3
:1006C000006820F0030008600846006840F002005F
:1006D00008601A4840681949486008464068486000
:1006E0000846406840F4806048600846406820F44E
:1006F0007C1048600846406840F460104860084636
:10070000006840F08070086000BF0C48006800F08E
:1007100000700028F9D00948406820F0030007491C
:1007200048600846406840F00200486000BF034847
:10073000406800F00C000828F9D10CBD0010024000
:1007400000200240042808D14FF0E021096941F05F
:1007500004014FF0E022116107E04FF0E021096948
:1007600021F004014FF0E022116170477047000052
:1007700010B51348006840F00100114908600846B0
:100780004068104908400E494860084600680E4914
:1007900008400B4908600846006820F48020086083
:1007A0000846406820F4FE0048604FF41F0088604F
:1007B000FFF753FF4FF000600449086010BD0000D0
:1007C000001002400000FFF8FFFFF6FE08ED00E019
:1007D00010B5002440F22551054800F06BF830B107
:1007E000034800F005F9C4B2204600F061FF10BDD7
:1007F0000048004000B587B001210820FFF796FEB1
:1008000001218804FFF782FE4FF44060ADF8180024
:1008100018208DF81B0003208DF81A0006A918482F
:10082000FFF733FD4FF4E13002900020ADF80C00EB
:10083000ADF80E00ADF81000ADF814000C20ADF8C6
:10084000120002A90F4800F067F8012240F225517A
:100850000C4800F03CF801210A4800F01FF827205E
:100860008DF8040001208DF8070000208DF80500A8
:100870008DF8060001A8FFF7A3FD07B000BD00003A
:10088000000C01400048004010B5044621460248D3
:1008900000F0B3F810BD00000048004021B182898B
:1008A00042F40052828104E082894DF6FF731A40BF
:1008B0008281704702460020B1F5007F00D100BF61
:1008C00013880B400BB1012000E000207047F0B509
:1008D0000346002400260025002040F66A17B9428E
:1008E00000D100BF1846C1F3421401F01F060127D2
:1008F00007FA06F5012C01D10C3004E0022C01D1DD
:10090000103000E014301AB107682F43076002E08E
:100910000768AF430760F0BD2DE9F04786B0054694
:100920000E460024A24600BFA1460027B08900B1B0
:1009300000BF2F462C8A4CF6FF700440F088044319
:100940002C82AC894EF6F3100440B08831890843FC
:10095000718908430443AC81AC8A4FF6FF400440E0
:10096000B0890443AC8201A8FFF7F0FD1F4887421D
:1009700002D1DDF810A001E0DDF80CA0A88900F498
:10098000004040B10AEBCA0000EB0A103168490090
:10099000B0FBF1F807E00AEBCA0000EB0A1031687F
:1009A0008900B0FBF1F86420B8FBF0F004012009E5
:1009B000642101FB1089A88900F4004040B1322075
:1009C00000EBC900B0FBF1F000F00700044308E0C1
:1009D000322000EB09106421B0FBF1F000F00F00B1
:1009E00004432C8106B0BDE8F087000000380140C8
:1009F00001468888C0F308007047C1F3080282806E
:100A0000704700BFFEE770470146002008780002EB
:100A10004A78104300028A7810430002CA781043D3
:100A2000704700002DE9F05F04463349E01C11F8DF
:100A30000080B8F10F0F5AD2DFE808F0080B0E1152
:100A40001C2024594A59595959594D0000F034FA7B
:100A50004EE000F083FD4BE000F026FA48E0264926
:100A6000A01D085C2549087000220321084600F0FB
:100A7000F9FE3DE001202249087039E001202149BA
:100A8000087035E01C49601D095C1B4A201D105C84
:100A900041EA0027002518E0A01D2844801C1649C3
:100AA000085C4FF6FF7101EA0026A01D2844C01C17
:100AB0001149085C304486B22144891D481900F070
:100AC00023F88346301D284485B2BD42E4DB0FE0A5
:100AD000FFF799FF0CE00849A01D11F80090E01DF8
:100AE00011F800A05146484600F02AFE00E000BF81
:100AF00000BFBDE8F09F000000020020FB010020C5
:100B0000F9010020FA0100202DE9F047044626787B
:100B100094F80180A0784FF6FF7101EA0025E07893
:100B2000284485B2304600F0A7F90746084800EB94
:100B300047004078404502D00020BDE8F0872A46B3
:100B4000211D304600F076F881464846F5E7000062
:100B50003C21000810B56FF00400FFF7F3FD0948D1
:100B600000680949B0FBF1F040B208490870084636
:100B700090F900004FF47A71484300B204490880AC
:100B800010BD00000000002000127A0028000020A4
:100B90002A0000200146124AB2F900204A434FF0D1
:100BA000E0235A6100229A611A46126942F001025A
:100BB0001A6100BF4FF0E022106900F001021AB183
:100BC00000F48032002AF5D04FF0E022126922F0C2
:100BD00001024FF0E0231A6100229A617047000081
:100BE0002A0000202DE9F04104460D462946204602
:100BF00000F0B6FA07463946072000F0DDF9064650
:100C0000012E01D1BDE8F0810020FBE72DE9F04184
:100C100004460D462946204600F0A2FA074639460A
:100C2000092000F0C9F90646012E01D1BDE8F08186
:100C30000020FBE72DE9F04105460E461746152D2D
:100C40004ED2DFE805F04D0B11174D1D23292F352E
:100C50004D4D4D4D4D4D4D4D3B4147003946304674
:100C600000F06BF804463CE03946304600F073F87B
:100C7000044636E03946304600F04BF8044630E092
:100C80003946304600F0A3F804462AE0394630469B
:100C900000F075F8044624E039463046FFF7A2FF1D
:100CA00004461EE03946304600F0C4F8044618E019
:100CB00039463046FFF7AAFF044612E0394630466F
:100CC00000F0A4F804460CE03946304600F00DF878
:100CD000044606E03946304600F065F8044600E078
:100CE00000BF00BF2046BDE8F0812DE9F041044679
:100CF0000D462946204600F033FA074639461320B0
:100D000000F05AF90646012E01D1BDE8F08100201D
:100D1000FBE72DE9F04104460D462946204600F048
:100D200025FA07463946032000F0DEF90646012E73
:100D300001D1BDE8F0810020FBE770B504460D4607
:100D40002A462146012000F095F90646012E00D1E1
:100D500070BD0020FCE72DE9F04104460D46294610
:100D6000204600F0FDF907463946022000F024F93C
:100D70000646012E01D1BDE8F0810020FBE72DE9F8
:100D8000F04104460D462946204600F0E9F90746A1
:100D90003946062000F010F90646012E01D1BDE8C3
:100DA000F0810020FBE72DE9F04104460D4629467D
:100DB000204600F0D5F907463946142000F0FCF82B
:100DC0000646012E01D1BDE8F0810020FBE72DE9A8
:100DD000F04106460F463946304600F0C4F9054654
:100DE00025B1012D03D0022D03D101E002E001E085
:100DF00000E000BF00BF2946052000F00FF90446BF
:100E0000012C01D1BDE8F0810020FBE72DE9F04184
:100E100004460D462946204600F0A8F90746394603
:100E2000122000F061F90646012E01D1BDE8F081E3
:100E30000020FBE72DE9F04104460D4629462046F7
:100E400000F08EF907463946082000F0B5F806464E
:100E5000012E01D1BDE8F0810020FBE730B502464C
:100E60000020002305E012F8015B2C18E0B25C1CA6
:100E7000A3B28B42F7DB30BD70B5054600F012F827
:100E80000646002407E0064810F81400A84200D1E6
:100E900003E0601CC4B2B442F5DB00BF204670BD65
:100EA0003C2100081420704710B50024224603217D
:100EB000022000F0D7FC10BD10B500240B480078CC
:100EC00040B90021204600F0CDFBC4B20120074903
:100ED000087004E00121204600F0C4FBC4B22246A1
:100EE0000321002000F0BEFC10BD0000FC0100202A
:100EF00010B54FF480710948FFF754FA4FF40071B0
:100F00000648FFF74FFA4FF400710448FFF748FA1C
:100F10004FF480710148FFF743FA10BD000C014007
:100F200010B54FF480710748FFF73CFA4FF4007199
:100F30000448FFF735FA4FF400710248FFF732FA20
:100F400010BD0000000C014010B54FF48071044842
:100F5000FFF728FA4FF480710148FFF721FA10BD1E
:100F6000000C0140FFF7F6FDFFF723FA00F04AF905
:100F7000FFF756FB00F038F9FFF73CFC00F0CAFB26
:100F8000092418E000F0E0FB00F0F8F830B1012887
:100F900006D0022806D0032808D105E0002406E088
:100FA000012404E0022402E0032400E000BF00BFAB
:100FB0002046FFF747FAE5E770B504460D460026E0
:100FC00015480078012800D170BD2146304600F058
:100FD00049FB06460121304600F044FB064600214D
:100FE000304600F03FFB06460121304600F03AFB58
:100FF00006462DB90021304600F034FB064604E0D9
:101000000121304600F02EFB064632460321072020
:1010100000F028FC0120D7E7F801002070B5044655
:101020000E46002512480078012800D170BD2146E7
:10103000284600F017FB05460421284600F012FB65
:1010400005460021284600F00DFB054601212846F3
:1010500000F008FB05463146284600F003FB054634
:101060002A460321072000F0FDFB0120DEE70000F7
:10107000F80100202DE9F041064688461446002775
:1010800018480078012801D1BDE8F0813146384682
:1010900000F0E8FA07460021384600F0E3FA074678
:1010A0002546E01704EB1060C0F30721384600F036
:1010B000D9FA0746E01704EB10600012A4EB0020F9
:1010C000C1B2384600F0CEFA0746224641463846BD
:1010D00000F0B4FA07463A460321072000F0C2FBAD
:1010E0000120D1E7F801002070B505460C46002626
:1010F0001A480078012800D170BD2946304600F01A
:10110000B1FA06460221304600F0ACFA064600214C
:10111000304600F0A7FA06460421304600F0A2FA55
:101120000646210E304600F09DFA0646C4F30741FC
:10113000304600F097FA0646C4F30721304600F027
:1011400091FA0646E1B2304600F08CFA0646324685
:101150000321072000F086FB0120CDE7F8010020E5
:1011600002461078704702461078704710B5034663
:101170000C461846FFF748FC10BD000001480078F7
:1011800070470000FB010020F0B505460E461346EF
:101190002A46344605B10EB90020F0BDA24202D95C
:1011A000E018904208D2002103E0605C5054481CD3
:1011B00081B29942F9DB07E0194603E0481E275C3B
:1011C000175481B20029F9DC2846E6E701460022DF
:1011D00009B900207047002200E0521C11F8013BC1
:1011E000002BFAD11046F5E710B500218D2000F054
:1011F00098F90021142000F094F90021AF2000F0AC
:1012000090F910BD08B501210820FFF78FF94FF4C0
:101210004070ADF8000003208DF8020010208DF81A
:10122000030069463948FFF730F8C820FFF7B2FCE1
:101230000021AE2000F075F90021084600F071F998
:101240000021102000F06DF90021402000F069F924
:101250000021B02000F065F90021812000F061F943
:101260000021FF2000F05DF90021A12000F059F9D4
:101270000021A62000F055F90021A82000F051F926
:1012800000213F2000F04DF90021C82000F049F96D
:101290000021D32000F045F90021084600F041F973
:1012A0000021D52000F03DF90021802000F039F91F
:1012B0000021D82000F035F90021052000F031F997
:1012C0000021D92000F02DF90021F12000F029F9AA
:1012D0000021DA2000F025F90021122000F021F988
:1012E0000021DB2000F01DF90021302000F019F969
:1012F00000218D2000F015F90021142000F011F9D3
:101300000021AF2000F00DF908BD0000000C0140E5
:1013100010B50246012000E050430B1EA1F101046C
:10132000E1B2F9D110BD70B504460D4605F1B0002B
:10133000002100F0F6F8102141EA1410002100F01D
:10134000F0F804F00F00002100F0EBF870BD000091
:101350002DE9F04707460E469046994600250024A1
:10136000A8F12000C5B27F2F02DD0027B01CC6B255
:10137000B9F1100F24D131463846FFF7D4FF0024CD
:1013800008E004EB0511194A505C012100F0C9F88E
:10139000601CC4B2082CF4DB701CC1B23846FFF7E5
:1013A000C2FF002409E004EB051108310F4A505C2C
:1013B000012100F0B6F8601CC4B2082CF3DB12E087
:1013C00031463846FFF7AFFF00240AE005EB450140
:1013D000074A02EB4101085D012100F0A2F8601C00
:1013E000C4B2062CF2DBBDE8F08700004C1B0008FD
:1013F000241900082DE9F04180460E4615460027C5
:1014000031464046FFF78FFF00240AE0124A02EB04
:101410008511085D012100F084F8781CC7B2601CBA
:10142000C4B2102CF2DB701CC1B24046FFF77BFF48
:1014300000240CE06900491C074A02EB4111085DD9
:10144000012100F06EF8781CC7B2601CC4B2102CE9
:10145000F0DBBDE8F08100002C0000202DE9FF5FEB
:10146000074691461E460E9D4FF0000A002435E0C7
:10147000301B401EC1B20A20FFF74AFFB9FBF0F053
:101480000A21B0FBF1F201FB1208BAF1000F14D1EE
:10149000701EA04211DDB8F1000F0CD1AB4605EB78
:1014A000DB71491001FB0471C8B22B46202201995F
:1014B000FFF74EFF10E04FF0010AAB4605EBDB7182
:1014C000491001FB0471C8B208F13001CAB22B46C1
:1014D0000199FFF73DFF00BF601CC4B2B442C7DBF7
:1014E000BDE8FF9F70B5022418E004F1B0000021B0
:1014F00000F017F80021084600F013F80021102032
:1015000000F00FF8002505E00121002000F009F8A7
:10151000681CC5B2802DF7DB601CC4B2082CE4DB6C
:1015200070BD70B504460D460DB1402000E00020AE
:101530000646FFF7DDFC782000F0C6F9FFF704FD52
:10154000304600F0C1F9FFF7FFFCE0B200F0BCF953
:10155000FFF7FAFCFFF7E4FC70BD00003EB5002485
:10156000002000900190029025A0FFF72FFE85B289
:101570002A4623A1204600F061F8C4B222A0FFF75A
:1015800025FE85B22A4620A1204600F057F8C4B2B5
:1015900022A0FFF71BFE85B22A4620A1204600F0BC
:1015A0004DF8C4B21FA0FFF711FE85B22A461DA157
:1015B000204600F043F8C4B21CA0FFF707FE85B236
:1015C0002A461AA1204600F039F8C4B219A0FFF744
:1015D000FDFD85B22A4617A1204600F02FF8C4B2BF
:1015E00015A0FFF7F3FD85B22A4613A1204600F0AF
:1015F00025F8C4B222460321012000F033F93EBD94
:101600007B2270223A22000066756C7667656F69EE
:10161000776B70653961777100000000222C2276AB
:10162000223A2200312E302E30000000222C226D72
:10163000223A0000320000007D0000002DE9F04158
:1016400004460E461546064807192A4631463846CE
:10165000FFF79AFD601984B22046BDE8F0810000D2
:101660003C020020024B1A181170431C98B27047BC
:101670003C0200200B4909680B4A126891420FD0C6
:1016800008490A6809498A4202D31739054A116094
:1016900004490968087803490968491C014A11602E
:1016A00070470000F4010020F00100203602002005
:1016B00012490968124A1268891A01291CD0104976
:1016C00009680E4A1268914206D90D4909680B4A09
:1016D0001268891A17290FD209490A6809498A42EA
:1016E00002D31739064A1160054909680870044990
:1016F0000968491C024A116070470000F40100208B
:10170000F00100203602002010B504462046FFF705
:10171000BBF810BD0548064908600649086000206E
:1017200005490870FF200549087070471F02002016
:10173000F0010020F4010020F8010020FB0100204E
:1017400008B901B100BF704770B50024002509E059
:10175000FFF790FF38490A880988491C364B1980E1
:1017600036498854344800881F2803D200F09EF878
:101770000028EDDC30480088072800DA70BD42E020
:101780002E48005D552802D0601C84B23BE02B49F6
:10179000601C085CAA2802D0601C84B233E0274990
:1017A000A01C085C10B1A01C84B22CE02349201DB1
:1017B000085C4FF6FF7101EA00252049601D085CB6
:1017C000C01D284485B2262D02D9E01C84B21AE03F
:1017D00019480088001BA84200DA19E06A1E91B27D
:1017E000164A1019FFF73AFB6119491E134A515C5A
:1017F000884202D0E01C84B205E02046FFF712F9CF
:10180000601984B200BF0C480088001B0728B7DAB3
:1018100000BF09480088001B074908800846008867
:10182000002806DD05480119034802880348FFF730
:10183000ABFC00BFA2E70000EC010020000200208A
:1018400070B504460D4604B105B970BD03E02078BB
:10185000FFF75AFF641C281EA5F101018DB2F6D1D5
:1018600000BFF2E72DE9F04105460E461446002779
:1018700055200D490870AA20487008468670C5702A
:10188000201208714C71E01D84B2601E81B20648BE
:10189000FFF7E4FA0746601E03490F542146024849
:1018A000FFF7CEFFBDE8F081360200200448006853
:1018B00004490968884201D0012070470020FCE7F4
:1018C000F0010020F40100202DE9F04105462C46EE
:1018D0004FF480711248FEF763FD00261CE0274696
:1018E00007F08007802F04D1B9000D48FEF75AFD9C
:1018F00004E04FF400710A48FEF752FD6006040E42
:101900004FF480710648FEF74DFD4FF48071044896
:10191000FEF746FD701CC6B2082EE0DBBDE8F08184
:10192000000C01400000000000000000002F00003B
:1019300000000700070000147F147F1400242A7F92
:101940002A12006264081323003649552250000011
:101950000503000000001C224100000041221C0081
:101960000014083E08140008083E0808000000A003
:1019700060000008080808080000606000000020FF
:1019800010080402003E5149453E0000427F4000DD
:10199000004261514946002141454B310018141263
:1019A0007F10002745454539003C4A494930000130
:1019B0007109050300364949493600064949291E7F
:1019C00000003636000000005636000000081422E1
:1019D00041000014141414140000412214080002E1
:1019E0000151090600324959513E007C1211127C06
:1019F000007F49494936003E41414122007F414133
:101A0000221C007F49494941007F09090901003E24
:101A10004149497A007F0808087F0000417F410062
:101A2000002040413F01007F08142241007F4040D8
:101A30004040007F020C027F007F0408107F003EC0
:101A40004141413E007F09090906003E4151215EA6
:101A5000007F091929460046494949310001017FA3
:101A60000101003F4040403F001F2040201F003F39
:101A70004038403F006314081463000708700807EB
:101A800000615149454300007F41410000552A55FE
:101A90002A55000041417F00000402010204004079
:101AA000404040400000010204000020545454789B
:101AB000007F4844443800384444442000384444BB
:101AC000487F00385454541800087E090102001859
:101AD000A4A4A47C007F080404780000447D400096
:101AE000004080847D00007F102844000000417F7A
:101AF0004000007C04180478007C08040478003856
:101B00004444443800FC242424180018242418FCDD
:101B1000007C0804040800485454542000043F4446
:101B20004020003C4040207C001C2040201C003C09
:101B30004030403C004428102844001CA0A0A07C59
:101B4000004464544C441414141414140000000091
:101B5000000000000000000000000000000000F88D
:101B600000000000000000333000000000100C06F0
:101B7000100C0600000000000000000040C078408B
:101B8000C0784000043F04043F040400007088FC57
:101B900008300000001820FF211E0000F008F000AF
:101BA000E018000000211C031E211E0000F0088820
:101BB000700000001E2123241927211010160E008A
:101BC000000000000000000000000000000000E035
:101BD000180402000000000718204000000204184A
:101BE000E00000000040201807000000404080F0A6
:101BF000804040000202010F01020200000000F0DC
:101C0000000000000101011F0101010000000000AF
:101C10000000000080B07000000000000000000024
:101C200000000000000101010101010100000000AD
:101C30000000000000303000000000000000000044
:101C400080601804006018060100000000E0100821
:101C50000810E000000F102020100F00001010F8F6
:101C6000000000000020203F202000000070080835
:101C700008887000003028242221300000300888B5
:101C8000884830000018202020110E000000C020DD
:101C900010F8000000070424243F240000F80888FE
:101CA000880808000019212020110E0000E010888B
:101CB00088180000000F112020110E0000380808BD
:101CC000C83808000000003F0000000000708808CD
:101CD00008887000001C222121221C0000E010084E
:101CE0000810E0000000312222110F00000000C0A7
:101CF000C000000000000030300000000000008044
:101D00000000000000008060000000000000804033
:101D1000201008000001020408102000404040404C
:101D2000404040000404040404040400000810209F
:101D300040800000002010080402010000704808E4
:101D40000808F0000000003036010000C030C8284C
:101D5000E810E0000718272423140B000000C03807
:101D6000E0000000203C23020227382008F8888881
:101D700088700000203F202020110E00C03008088D
:101D800008083800071820202010080008F8080864
:101D90000810E000203F202020100F0008F888885D
:101DA000E8081000203F20202320180008F8888829
:101DB000E8081000203F200003000000C0300808A1
:101DC0000838000007182020221E020008F808002A
:101DD0000008F808203F210101213F20000808F8F1
:101DE000080800000020203F202000000000080814
:101DF000F8080800C08080807F00000008F888C0D4
:101E000028180800203F20012638200008F8080084
:101E100000000000203F20202020300008F8F800BB
:101E2000F8F80800203F003F003F200008F830C0CD
:101E30000008F808203F200007183F00E0100808BD
:101E40000810E0000F10202020100F0008F80808EC
:101E50000808F000203F210101010000E0100808FF
:101E60000810E0000F18242438504F0008F8888824
:101E700088887000203F2000030C30200070880804
:101E8000080838000038202121221C00180808F812
:101E9000080818000000203F2000000008F8080093
:101EA0000008F808001F202020201F000878880064
:101EB00000C83808000007380E010000F80800F8D4
:101EC0000008F800033C0700073C0300081868807E
:101ED0008068180820302C03032C30200838C800F4
:101EE000C83808000000203F200000001008080843
:101EF000C83808002038262120201800000000FEE5
:101F0000020202000000007F40404000000C30C090
:101F100000000000000000010638C00000020202BC
:101F2000FE000000004040407F000000000004026E
:101F30000202040000000000000000000000000099
:101F40000000000080808080808080800002020489
:101F50000000000000000000000000000000808081
:101F6000808000000019242222223F2008F80080EF
:101F700080000000003F112020110E0000000080B2
:101F800080800000000E1120202011000000008041
:101F90008088F800000E112020103F200000808073
:101FA00080800000001F222222221300008080F087
:101FB000888888180020203F2020000000008080B2
:101FC00080808000006B94949493600008F80080F7
:101FD00080800000203F210000203F200080989852
:101FE000000000000020203F2020000000000080B2
:101FF0009898000000C08080807F000008F80000F2
:1020000080808000203F24022D302000000808F846
:10201000000000000020203F202000008080808001
:1020200080808000203F20003F20003F8080008093
:1020300080800000203F210000203F2000008080A1
:1020400080800000001F202020201F008080008052
:102050008000000080FFA12020110E000000008001
:1020600080808000000E112020A0FF8080808000F2
:102070008080800020203F2120000100000080801F
:10208000808080000033242424241900008080E014
:10209000808000000000001F2020000080800000E1
:1020A00000808000001F202020103F2080808000C2
:1020B0000080808000010E300806010080800080D2
:1020C000008080800F300C030C300F0000808000F7
:1020D000808080000020312E0E3120008080800022
:1020E0000080808080818E701806010000808080D2
:1020F000808080000021302C222130000000000070
:10210000807C020200000000003F40400000000010
:10211000FF00000000000000FF0000000002027C41
:10212000800000000040403F000000000006010168
:10213000020204040000000000000000010002018F
:1021400003020404050406010701080109010A0449
:102150000B020C010D040E050F02100211021202F7
:102160001301140184210008000000200002000077
:10217000280100087022000800020020D00600009C
:1021800084010008118490D0036809010203040649
:102190000708090C691045020406081780FC96E53B
:1021A00084FC3F08C8494AC80812E1200A807F021F
:1021B0004C807F80601F05123F40407812FE12FC69
:1021C00012FF000911F2121AD61212F20213403F46
:1021D000123F000B12FF804F20180710204F800085
:1021E0000E1210109010101116101010D010101A9E
:1021F00040012808435C4040504C430B091020101C
:102200000920D04C4344C8102022F80214FF1008C3
:102210003F4044484740700D120F40807F6033427A
:10222000CC193A0A15FE40111E3F1088601F07099D
:102230001320000F122030AC633004A4643C27E468
:10224000040404001011226722121220110D418192
:102250007F010509302F443414D45F540106135F05
:10226000D41454344CF84B4A011A4BE201250000B7
:04000005080000ED02
:00000001FF
